{
  "_format": "hh-sol-artifact-1",
  "contractName": "TokenTvT",
  "sourceName": "contracts/TokenTvT.sol",
  "abi": [
    {
      "inputs": [
        {
          "components": [
            {
              "internalType": "string",
              "name": "name",
              "type": "string"
            },
            {
              "internalType": "string",
              "name": "symbol",
              "type": "string"
            },
            {
              "internalType": "uint256",
              "name": "maxTotalSupply",
              "type": "uint256"
            },
            {
              "internalType": "address[]",
              "name": "paymentTokens",
              "type": "address[]"
            },
            {
              "internalType": "uint256[]",
              "name": "issuanceSwapMultiple",
              "type": "uint256[]"
            },
            {
              "internalType": "uint256[]",
              "name": "redemptionSwapMultiple",
              "type": "uint256[]"
            },
            {
              "internalType": "uint256",
              "name": "maturityPeriod",
              "type": "uint256"
            },
            {
              "internalType": "uint256",
              "name": "settlementPeriod",
              "type": "uint256"
            },
            {
              "internalType": "uint256",
              "name": "collateral",
              "type": "uint256"
            },
            {
              "internalType": "uint256",
              "name": "issuerCollateralShare",
              "type": "uint256"
            },
            {
              "internalType": "uint256",
              "name": "insurerCollateralShare",
              "type": "uint256"
            },
            {
              "internalType": "address",
              "name": "collateralProvider",
              "type": "address"
            },
            {
              "internalType": "bytes32",
              "name": "documentName",
              "type": "bytes32"
            },
            {
              "internalType": "string",
              "name": "documentUri",
              "type": "string"
            },
            {
              "internalType": "bytes32",
              "name": "documentHash",
              "type": "bytes32"
            }
          ],
          "internalType": "struct TokenTvTInput",
          "name": "input",
          "type": "tuple"
        },
        {
          "internalType": "address",
          "name": "custodianContract",
          "type": "address"
        },
        {
          "internalType": "address",
          "name": "escrowManagerAddress",
          "type": "address"
        }
      ],
      "stateMutability": "nonpayable",
      "type": "constructor"
    },
    {
      "inputs": [
        {
          "internalType": "bytes1",
          "name": "errorCode",
          "type": "bytes1"
        },
        {
          "internalType": "string",
          "name": "message",
          "type": "string"
        }
      ],
      "name": "ERC1066Error",
      "type": "error"
    },
    {
      "anonymous": false,
      "inputs": [
        {
          "indexed": true,
          "internalType": "address",
          "name": "owner",
          "type": "address"
        },
        {
          "indexed": true,
          "internalType": "address",
          "name": "spender",
          "type": "address"
        },
        {
          "indexed": false,
          "internalType": "uint256",
          "name": "value",
          "type": "uint256"
        }
      ],
      "name": "Approval",
      "type": "event"
    },
    {
      "anonymous": false,
      "inputs": [
        {
          "indexed": false,
          "internalType": "address",
          "name": "aadr",
          "type": "address"
        }
      ],
      "name": "BurntContract",
      "type": "event"
    },
    {
      "anonymous": false,
      "inputs": [
        {
          "indexed": false,
          "internalType": "uint256",
          "name": "orderId",
          "type": "uint256"
        },
        {
          "indexed": false,
          "internalType": "address",
          "name": "tradeToken",
          "type": "address"
        },
        {
          "indexed": false,
          "internalType": "uint256",
          "name": "tradeTokenAmount",
          "type": "uint256"
        },
        {
          "indexed": false,
          "internalType": "address",
          "name": "tradeTokenDestination",
          "type": "address"
        },
        {
          "indexed": false,
          "internalType": "address",
          "name": "issuerAddress",
          "type": "address"
        },
        {
          "indexed": false,
          "internalType": "address",
          "name": "paymentToken",
          "type": "address"
        },
        {
          "indexed": false,
          "internalType": "uint256",
          "name": "paymentTokenAmount",
          "type": "uint256"
        },
        {
          "indexed": false,
          "internalType": "address",
          "name": "paymentTokenDestination",
          "type": "address"
        },
        {
          "indexed": false,
          "internalType": "address",
          "name": "investorAddress",
          "type": "address"
        },
        {
          "indexed": false,
          "internalType": "uint256",
          "name": "collateral",
          "type": "uint256"
        },
        {
          "indexed": false,
          "internalType": "uint256",
          "name": "issuerCollateral",
          "type": "uint256"
        },
        {
          "indexed": false,
          "internalType": "uint256",
          "name": "insurerCollateral",
          "type": "uint256"
        },
        {
          "indexed": false,
          "internalType": "address",
          "name": "collateralProvider",
          "type": "address"
        },
        {
          "indexed": false,
          "internalType": "uint256",
          "name": "timeout",
          "type": "uint256"
        }
      ],
      "name": "IssuanceEscrowInitiated",
      "type": "event"
    },
    {
      "anonymous": false,
      "inputs": [
        {
          "indexed": false,
          "internalType": "address",
          "name": "_to",
          "type": "address"
        },
        {
          "indexed": false,
          "internalType": "uint256",
          "name": "_value",
          "type": "uint256"
        },
        {
          "indexed": false,
          "internalType": "bytes1",
          "name": "_data",
          "type": "bytes1"
        }
      ],
      "name": "IssuanceFailure",
      "type": "event"
    },
    {
      "anonymous": false,
      "inputs": [
        {
          "indexed": false,
          "internalType": "address",
          "name": "_to",
          "type": "address"
        },
        {
          "indexed": false,
          "internalType": "uint256",
          "name": "_value",
          "type": "uint256"
        },
        {
          "indexed": false,
          "internalType": "bytes1",
          "name": "_data",
          "type": "bytes1"
        },
        {
          "indexed": false,
          "internalType": "uint256",
          "name": "orderId",
          "type": "uint256"
        }
      ],
      "name": "Issued",
      "type": "event"
    },
    {
      "anonymous": false,
      "inputs": [
        {
          "indexed": true,
          "internalType": "address",
          "name": "previousOwner",
          "type": "address"
        },
        {
          "indexed": true,
          "internalType": "address",
          "name": "newOwner",
          "type": "address"
        }
      ],
      "name": "OwnershipTransferred",
      "type": "event"
    },
    {
      "anonymous": false,
      "inputs": [
        {
          "indexed": false,
          "internalType": "address",
          "name": "account",
          "type": "address"
        }
      ],
      "name": "Paused",
      "type": "event"
    },
    {
      "anonymous": false,
      "inputs": [
        {
          "indexed": false,
          "internalType": "address",
          "name": "_from",
          "type": "address"
        },
        {
          "indexed": false,
          "internalType": "uint256",
          "name": "_value",
          "type": "uint256"
        },
        {
          "indexed": false,
          "internalType": "bytes1",
          "name": "_data",
          "type": "bytes1"
        }
      ],
      "name": "RedeemFailed",
      "type": "event"
    },
    {
      "anonymous": false,
      "inputs": [
        {
          "indexed": false,
          "internalType": "address",
          "name": "_from",
          "type": "address"
        },
        {
          "indexed": false,
          "internalType": "uint256",
          "name": "_value",
          "type": "uint256"
        },
        {
          "indexed": false,
          "internalType": "bytes1",
          "name": "_data",
          "type": "bytes1"
        },
        {
          "indexed": false,
          "internalType": "uint256",
          "name": "orderId",
          "type": "uint256"
        }
      ],
      "name": "Redeemed",
      "type": "event"
    },
    {
      "anonymous": false,
      "inputs": [
        {
          "indexed": false,
          "internalType": "uint256",
          "name": "orderId",
          "type": "uint256"
        },
        {
          "indexed": false,
          "internalType": "address",
          "name": "tradeToken",
          "type": "address"
        },
        {
          "indexed": false,
          "internalType": "uint256",
          "name": "tradeTokenAmount",
          "type": "uint256"
        },
        {
          "indexed": false,
          "internalType": "address",
          "name": "tradeTokenDestination",
          "type": "address"
        },
        {
          "indexed": false,
          "internalType": "address",
          "name": "issuerAddress",
          "type": "address"
        },
        {
          "indexed": false,
          "internalType": "address",
          "name": "paymentToken",
          "type": "address"
        },
        {
          "indexed": false,
          "internalType": "uint256",
          "name": "paymentTokenAmount",
          "type": "uint256"
        },
        {
          "indexed": false,
          "internalType": "address",
          "name": "paymentTokenDestination",
          "type": "address"
        },
        {
          "indexed": false,
          "internalType": "address",
          "name": "investorAddress",
          "type": "address"
        },
        {
          "indexed": false,
          "internalType": "uint256",
          "name": "collateral",
          "type": "uint256"
        },
        {
          "indexed": false,
          "internalType": "uint256",
          "name": "issuerCollateral",
          "type": "uint256"
        },
        {
          "indexed": false,
          "internalType": "uint256",
          "name": "insurerCollateral",
          "type": "uint256"
        },
        {
          "indexed": false,
          "internalType": "address",
          "name": "collateralProvider",
          "type": "address"
        },
        {
          "indexed": false,
          "internalType": "uint256",
          "name": "timeout",
          "type": "uint256"
        }
      ],
      "name": "RedemptionEscrowInitiated",
      "type": "event"
    },
    {
      "anonymous": false,
      "inputs": [
        {
          "indexed": false,
          "internalType": "uint256",
          "name": "oldValue",
          "type": "uint256"
        },
        {
          "indexed": false,
          "internalType": "uint256",
          "name": "newValue",
          "type": "uint256"
        }
      ],
      "name": "SupplyDecreased",
      "type": "event"
    },
    {
      "anonymous": false,
      "inputs": [
        {
          "indexed": false,
          "internalType": "uint256",
          "name": "oldValue",
          "type": "uint256"
        },
        {
          "indexed": false,
          "internalType": "uint256",
          "name": "newValue",
          "type": "uint256"
        }
      ],
      "name": "SupplyIncreased",
      "type": "event"
    },
    {
      "anonymous": false,
      "inputs": [
        {
          "indexed": false,
          "internalType": "uint256",
          "name": "ratio",
          "type": "uint256"
        }
      ],
      "name": "TokenIssuanceSwapRatioUpdated",
      "type": "event"
    },
    {
      "anonymous": false,
      "inputs": [
        {
          "indexed": true,
          "internalType": "address",
          "name": "from",
          "type": "address"
        },
        {
          "indexed": true,
          "internalType": "address",
          "name": "to",
          "type": "address"
        },
        {
          "indexed": false,
          "internalType": "uint256",
          "name": "value",
          "type": "uint256"
        }
      ],
      "name": "Transfer",
      "type": "event"
    },
    {
      "anonymous": false,
      "inputs": [
        {
          "indexed": false,
          "internalType": "address",
          "name": "account",
          "type": "address"
        }
      ],
      "name": "Unpaused",
      "type": "event"
    },
    {
      "inputs": [],
      "name": "APP_SPECIFIC_FAILURE",
      "outputs": [
        {
          "internalType": "bytes1",
          "name": "",
          "type": "bytes1"
        }
      ],
      "stateMutability": "view",
      "type": "function"
    },
    {
      "inputs": [],
      "name": "COUNTRY_NOT_ALLOWED",
      "outputs": [
        {
          "internalType": "bytes1",
          "name": "",
          "type": "bytes1"
        }
      ],
      "stateMutability": "view",
      "type": "function"
    },
    {
      "inputs": [],
      "name": "FUNDS_LOCKED",
      "outputs": [
        {
          "internalType": "bytes1",
          "name": "",
          "type": "bytes1"
        }
      ],
      "stateMutability": "view",
      "type": "function"
    },
    {
      "inputs": [],
      "name": "INSUFFICIENT_ALLOWANCE",
      "outputs": [
        {
          "internalType": "bytes1",
          "name": "",
          "type": "bytes1"
        }
      ],
      "stateMutability": "view",
      "type": "function"
    },
    {
      "inputs": [],
      "name": "INSUFFICIENT_BALANCE",
      "outputs": [
        {
          "internalType": "bytes1",
          "name": "",
          "type": "bytes1"
        }
      ],
      "stateMutability": "view",
      "type": "function"
    },
    {
      "inputs": [],
      "name": "INVALID_OPERATOR",
      "outputs": [
        {
          "internalType": "bytes1",
          "name": "",
          "type": "bytes1"
        }
      ],
      "stateMutability": "view",
      "type": "function"
    },
    {
      "inputs": [],
      "name": "INVALID_RECEIVER",
      "outputs": [
        {
          "internalType": "bytes1",
          "name": "",
          "type": "bytes1"
        }
      ],
      "stateMutability": "view",
      "type": "function"
    },
    {
      "inputs": [],
      "name": "INVALID_SENDER",
      "outputs": [
        {
          "internalType": "bytes1",
          "name": "",
          "type": "bytes1"
        }
      ],
      "stateMutability": "view",
      "type": "function"
    },
    {
      "inputs": [],
      "name": "INVESTOR_CLASSIFICATION_NOT_ALLOWED",
      "outputs": [
        {
          "internalType": "bytes1",
          "name": "",
          "type": "bytes1"
        }
      ],
      "stateMutability": "view",
      "type": "function"
    },
    {
      "inputs": [],
      "name": "INVESTOR_NOT_WHITELISTED",
      "outputs": [
        {
          "internalType": "bytes1",
          "name": "",
          "type": "bytes1"
        }
      ],
      "stateMutability": "view",
      "type": "function"
    },
    {
      "inputs": [],
      "name": "KYC_INCOMPLETE",
      "outputs": [
        {
          "internalType": "bytes1",
          "name": "",
          "type": "bytes1"
        }
      ],
      "stateMutability": "view",
      "type": "function"
    },
    {
      "inputs": [],
      "name": "TRANSFERS_HALTED",
      "outputs": [
        {
          "internalType": "bytes1",
          "name": "",
          "type": "bytes1"
        }
      ],
      "stateMutability": "view",
      "type": "function"
    },
    {
      "inputs": [],
      "name": "TRANSFER_FAILURE",
      "outputs": [
        {
          "internalType": "bytes1",
          "name": "",
          "type": "bytes1"
        }
      ],
      "stateMutability": "view",
      "type": "function"
    },
    {
      "inputs": [],
      "name": "TRANSFER_SUCCESS",
      "outputs": [
        {
          "internalType": "bytes1",
          "name": "",
          "type": "bytes1"
        }
      ],
      "stateMutability": "view",
      "type": "function"
    },
    {
      "inputs": [],
      "name": "TYPE",
      "outputs": [
        {
          "internalType": "string",
          "name": "",
          "type": "string"
        }
      ],
      "stateMutability": "view",
      "type": "function"
    },
    {
      "inputs": [],
      "name": "VERSION",
      "outputs": [
        {
          "internalType": "string",
          "name": "",
          "type": "string"
        }
      ],
      "stateMutability": "view",
      "type": "function"
    },
    {
      "inputs": [
        {
          "internalType": "address",
          "name": "owner",
          "type": "address"
        },
        {
          "internalType": "address",
          "name": "spender",
          "type": "address"
        }
      ],
      "name": "allowance",
      "outputs": [
        {
          "internalType": "uint256",
          "name": "",
          "type": "uint256"
        }
      ],
      "stateMutability": "view",
      "type": "function"
    },
    {
      "inputs": [
        {
          "internalType": "address",
          "name": "spender",
          "type": "address"
        },
        {
          "internalType": "uint256",
          "name": "amount",
          "type": "uint256"
        }
      ],
      "name": "approve",
      "outputs": [
        {
          "internalType": "bool",
          "name": "",
          "type": "bool"
        }
      ],
      "stateMutability": "nonpayable",
      "type": "function"
    },
    {
      "inputs": [
        {
          "internalType": "address",
          "name": "account",
          "type": "address"
        }
      ],
      "name": "balanceOf",
      "outputs": [
        {
          "internalType": "uint256",
          "name": "",
          "type": "uint256"
        }
      ],
      "stateMutability": "view",
      "type": "function"
    },
    {
      "inputs": [
        {
          "internalType": "address",
          "name": "addr",
          "type": "address"
        }
      ],
      "name": "burnContract",
      "outputs": [],
      "stateMutability": "nonpayable",
      "type": "function"
    },
    {
      "inputs": [],
      "name": "decimals",
      "outputs": [
        {
          "internalType": "uint8",
          "name": "",
          "type": "uint8"
        }
      ],
      "stateMutability": "pure",
      "type": "function"
    },
    {
      "inputs": [
        {
          "internalType": "address",
          "name": "spender",
          "type": "address"
        },
        {
          "internalType": "uint256",
          "name": "subtractedValue",
          "type": "uint256"
        }
      ],
      "name": "decreaseAllowance",
      "outputs": [
        {
          "internalType": "bool",
          "name": "",
          "type": "bool"
        }
      ],
      "stateMutability": "nonpayable",
      "type": "function"
    },
    {
      "inputs": [],
      "name": "escrowManager",
      "outputs": [
        {
          "internalType": "contract IEscrowInitiate",
          "name": "",
          "type": "address"
        }
      ],
      "stateMutability": "view",
      "type": "function"
    },
    {
      "inputs": [],
      "name": "finalizeIssuance",
      "outputs": [],
      "stateMutability": "nonpayable",
      "type": "function"
    },
    {
      "inputs": [
        {
          "internalType": "bytes32",
          "name": "_name",
          "type": "bytes32"
        }
      ],
      "name": "getDocument",
      "outputs": [
        {
          "internalType": "string",
          "name": "",
          "type": "string"
        },
        {
          "internalType": "bytes32",
          "name": "",
          "type": "bytes32"
        }
      ],
      "stateMutability": "view",
      "type": "function"
    },
    {
      "inputs": [],
      "name": "getIssuanceSwapRatio",
      "outputs": [
        {
          "internalType": "uint256",
          "name": "",
          "type": "uint256"
        }
      ],
      "stateMutability": "view",
      "type": "function"
    },
    {
      "inputs": [
        {
          "internalType": "address",
          "name": "spender",
          "type": "address"
        },
        {
          "internalType": "uint256",
          "name": "addedValue",
          "type": "uint256"
        }
      ],
      "name": "increaseAllowance",
      "outputs": [
        {
          "internalType": "bool",
          "name": "",
          "type": "bool"
        }
      ],
      "stateMutability": "nonpayable",
      "type": "function"
    },
    {
      "inputs": [
        {
          "internalType": "address",
          "name": "subscriber",
          "type": "address"
        },
        {
          "internalType": "uint256",
          "name": "value",
          "type": "uint256"
        }
      ],
      "name": "issue",
      "outputs": [],
      "stateMutability": "nonpayable",
      "type": "function"
    },
    {
      "inputs": [
        {
          "internalType": "address",
          "name": "subscriber",
          "type": "address"
        },
        {
          "internalType": "address",
          "name": "paymentTokenDestination",
          "type": "address"
        },
        {
          "internalType": "address",
          "name": "tradeTokenDestination",
          "type": "address"
        },
        {
          "internalType": "uint256",
          "name": "value",
          "type": "uint256"
        }
      ],
      "name": "issue",
      "outputs": [],
      "stateMutability": "nonpayable",
      "type": "function"
    },
    {
      "inputs": [
        {
          "internalType": "address[]",
          "name": "subscribers",
          "type": "address[]"
        },
        {
          "internalType": "uint256[]",
          "name": "value",
          "type": "uint256[]"
        }
      ],
      "name": "issueBatch",
      "outputs": [],
      "stateMutability": "nonpayable",
      "type": "function"
    },
    {
      "inputs": [
        {
          "internalType": "address",
          "name": "subscriber",
          "type": "address"
        }
      ],
      "name": "matureBalanceOf",
      "outputs": [
        {
          "internalType": "uint256",
          "name": "result",
          "type": "uint256"
        }
      ],
      "stateMutability": "view",
      "type": "function"
    },
    {
      "inputs": [
        {
          "internalType": "address",
          "name": "subscriber",
          "type": "address"
        }
      ],
      "name": "matureBalanceOfPending",
      "outputs": [
        {
          "internalType": "uint256",
          "name": "result",
          "type": "uint256"
        }
      ],
      "stateMutability": "view",
      "type": "function"
    },
    {
      "inputs": [],
      "name": "maxTotalSupply",
      "outputs": [
        {
          "internalType": "uint256",
          "name": "",
          "type": "uint256"
        }
      ],
      "stateMutability": "view",
      "type": "function"
    },
    {
      "inputs": [],
      "name": "name",
      "outputs": [
        {
          "internalType": "string",
          "name": "",
          "type": "string"
        }
      ],
      "stateMutability": "view",
      "type": "function"
    },
    {
      "inputs": [
        {
          "internalType": "address",
          "name": "subscriber",
          "type": "address"
        },
        {
          "internalType": "uint256",
          "name": "value",
          "type": "uint256"
        },
        {
          "internalType": "uint256",
          "name": "orderId",
          "type": "uint256"
        }
      ],
      "name": "onIssue",
      "outputs": [],
      "stateMutability": "nonpayable",
      "type": "function"
    },
    {
      "inputs": [
        {
          "internalType": "address",
          "name": "subscriber",
          "type": "address"
        },
        {
          "internalType": "uint256",
          "name": "value",
          "type": "uint256"
        },
        {
          "internalType": "uint256",
          "name": "orderId",
          "type": "uint256"
        }
      ],
      "name": "onRedeem",
      "outputs": [],
      "stateMutability": "nonpayable",
      "type": "function"
    },
    {
      "inputs": [],
      "name": "owner",
      "outputs": [
        {
          "internalType": "address",
          "name": "",
          "type": "address"
        }
      ],
      "stateMutability": "view",
      "type": "function"
    },
    {
      "inputs": [],
      "name": "pause",
      "outputs": [],
      "stateMutability": "nonpayable",
      "type": "function"
    },
    {
      "inputs": [],
      "name": "paused",
      "outputs": [
        {
          "internalType": "bool",
          "name": "",
          "type": "bool"
        }
      ],
      "stateMutability": "view",
      "type": "function"
    },
    {
      "inputs": [
        {
          "internalType": "address",
          "name": "subscriber",
          "type": "address"
        },
        {
          "internalType": "uint256",
          "name": "value",
          "type": "uint256"
        }
      ],
      "name": "redeem",
      "outputs": [],
      "stateMutability": "nonpayable",
      "type": "function"
    },
    {
      "inputs": [
        {
          "internalType": "address",
          "name": "subscriber",
          "type": "address"
        },
        {
          "internalType": "address",
          "name": "paymentTokenDestination",
          "type": "address"
        },
        {
          "internalType": "address",
          "name": "tradeTokenDestination",
          "type": "address"
        },
        {
          "internalType": "uint256",
          "name": "value",
          "type": "uint256"
        }
      ],
      "name": "redeem",
      "outputs": [],
      "stateMutability": "nonpayable",
      "type": "function"
    },
    {
      "inputs": [
        {
          "internalType": "address[]",
          "name": "subscribers",
          "type": "address[]"
        },
        {
          "internalType": "uint256[]",
          "name": "value",
          "type": "uint256[]"
        }
      ],
      "name": "redeemBatch",
      "outputs": [],
      "stateMutability": "nonpayable",
      "type": "function"
    },
    {
      "inputs": [],
      "name": "renounceOwnership",
      "outputs": [],
      "stateMutability": "nonpayable",
      "type": "function"
    },
    {
      "inputs": [
        {
          "internalType": "uint256",
          "name": "maxTotalSupply_",
          "type": "uint256"
        }
      ],
      "name": "setMaxSupply",
      "outputs": [],
      "stateMutability": "nonpayable",
      "type": "function"
    },
    {
      "inputs": [],
      "name": "symbol",
      "outputs": [
        {
          "internalType": "string",
          "name": "",
          "type": "string"
        }
      ],
      "stateMutability": "view",
      "type": "function"
    },
    {
      "inputs": [],
      "name": "totalSupply",
      "outputs": [
        {
          "internalType": "uint256",
          "name": "",
          "type": "uint256"
        }
      ],
      "stateMutability": "view",
      "type": "function"
    },
    {
      "inputs": [
        {
          "internalType": "address",
          "name": "to",
          "type": "address"
        },
        {
          "internalType": "uint256",
          "name": "amount",
          "type": "uint256"
        }
      ],
      "name": "transfer",
      "outputs": [
        {
          "internalType": "bool",
          "name": "",
          "type": "bool"
        }
      ],
      "stateMutability": "nonpayable",
      "type": "function"
    },
    {
      "inputs": [
        {
          "internalType": "address",
          "name": "from",
          "type": "address"
        },
        {
          "internalType": "address",
          "name": "to",
          "type": "address"
        },
        {
          "internalType": "uint256",
          "name": "amount",
          "type": "uint256"
        }
      ],
      "name": "transferFrom",
      "outputs": [
        {
          "internalType": "bool",
          "name": "",
          "type": "bool"
        }
      ],
      "stateMutability": "nonpayable",
      "type": "function"
    },
    {
      "inputs": [
        {
          "internalType": "address",
          "name": "newOwner",
          "type": "address"
        }
      ],
      "name": "transferOwnership",
      "outputs": [],
      "stateMutability": "nonpayable",
      "type": "function"
    },
    {
      "inputs": [],
      "name": "unpause",
      "outputs": [],
      "stateMutability": "nonpayable",
      "type": "function"
    },
    {
      "inputs": [
        {
          "internalType": "uint256",
          "name": "ratio",
          "type": "uint256"
        }
      ],
      "name": "updateTokenIssuanceSwapRatio",
      "outputs": [],
      "stateMutability": "nonpayable",
      "type": "function"
    }
  ],
  "bytecode": "0x60806040523480156200001157600080fd5b506040516200379538038062003795833981016040819052620000349162000584565b82600001518360200151846040015184838381600390805190602001906200005e9291906200021e565b508051620000749060049060208401906200021e565b50506005805460ff19169055506200008c33620001c4565b600691909155600780546001600160a01b0319166001600160a01b03909216919091179055505060608301518051620000ce91600891602090910190620002ad565b5060808301518051620000ea9160099160209091019062000305565b5060a083015180516200010691600a9160209091019062000305565b5060c0830151600b5560e0830151600c55610100830151600d55610120830151600e55610140830151600f55610160830151601080546001600160a01b03199081166001600160a01b0393841617909155601480549091169183169190911790556040805180820182526101c085015181526101a0850151602080830191825261018087015160009081526011825293909320825181559051805192939192620001b792600185019201906200021e565b509050505050506200078d565b600580546001600160a01b03838116610100818102610100600160a81b031985161790945560405193909204169182907f8be0079c531659141344cd1fd0a4f28419497f9722a3daafe3b4186f6b6457e090600090a35050565b8280546200022c9062000750565b90600052602060002090601f0160209004810192826200025057600085556200029b565b82601f106200026b57805160ff19168380011785556200029b565b828001600101855582156200029b579182015b828111156200029b5782518255916020019190600101906200027e565b50620002a992915062000342565b5090565b8280548282559060005260206000209081019282156200029b579160200282015b828111156200029b57825182546001600160a01b0319166001600160a01b03909116178255602090920191600190910190620002ce565b8280548282559060005260206000209081019282156200029b57916020028201828111156200029b5782518255916020019190600101906200027e565b5b80821115620002a9576000815560010162000343565b634e487b7160e01b600052604160045260246000fd5b6040516101e081016001600160401b038111828210171562000395576200039562000359565b60405290565b604051601f8201601f191681016001600160401b0381118282101715620003c657620003c662000359565b604052919050565b600082601f830112620003e057600080fd5b81516001600160401b03811115620003fc57620003fc62000359565b602062000412601f8301601f191682016200039b565b82815285828487010111156200042757600080fd5b60005b83811015620004475785810183015182820184015282016200042a565b83811115620004595760008385840101525b5095945050505050565b60006001600160401b038211156200047f576200047f62000359565b5060051b60200190565b80516001600160a01b0381168114620004a157600080fd5b919050565b600082601f830112620004b857600080fd5b81516020620004d1620004cb8362000463565b6200039b565b82815260059290921b84018101918181019086841115620004f157600080fd5b8286015b848110156200051757620005098162000489565b8352918301918301620004f5565b509695505050505050565b600082601f8301126200053457600080fd5b8151602062000547620004cb8362000463565b82815260059290921b840181019181810190868411156200056757600080fd5b8286015b848110156200051757805183529183019183016200056b565b6000806000606084860312156200059a57600080fd5b83516001600160401b0380821115620005b257600080fd5b908501906101e08288031215620005c857600080fd5b620005d26200036f565b825182811115620005e257600080fd5b620005f089828601620003ce565b8252506020830151828111156200060657600080fd5b6200061489828601620003ce565b602083015250604083015160408201526060830151828111156200063757600080fd5b6200064589828601620004a6565b6060830152506080830151828111156200065e57600080fd5b6200066c8982860162000522565b60808301525060a0830151828111156200068557600080fd5b620006938982860162000522565b60a08301525060c0838101519082015260e08084015190820152610100808401519082015261012080840151908201526101408084015190820152610160620006de81850162000489565b9082015261018083810151908201526101a080840151838111156200070257600080fd5b620007108a828701620003ce565b8284015250506101c091508183015182820152809550505050620007376020850162000489565b9150620007476040850162000489565b90509250925092565b600181811c908216806200076557607f821691505b602082108114156200078757634e487b7160e01b600052602260045260246000fd5b50919050565b612ff8806200079d6000396000f3fe608060405234801561001057600080fd5b50600436106102f15760003560e01c806375ef1a5b1161019d578063b78bd21b116100e9578063e121bad3116100a2578063eabd1b851161007c578063eabd1b8514610668578063f2fde38b14610673578063f61a6ac414610686578063ffa1ad741461069157600080fd5b8063e121bad314610637578063e4870a3b1461064a578063e99f78ce1461065557600080fd5b8063b78bd21b14610593578063ba036b401461059e578063bb24fe8a146105b1578063c12255c4146105d8578063c7ba58d7146105eb578063dd62ed3e146105fe57600080fd5b80639418c91a11610156578063a6a2e92711610130578063a6a2e92714610544578063a9059cbb14610557578063b06d6f451461056a578063b10d6b411461057257600080fd5b80639418c91a1461051e57806395d89b4114610529578063a457c2d71461053157600080fd5b806375ef1a5b146104a85780637a440785146104b35780638456cb59146104c6578063867904b4146104ce5780638da5cb5b146104e15780638e9fbfa21461050b57600080fd5b80632ab4d0521161025c57806350b1f356116102155780636c37c4bf116101ef5780636c37c4bf146104595780636f8b44b01461046457806370a0823114610477578063715018a6146104a057600080fd5b806350b1f3561461043b57806354ff5b82146104465780635c975abb1461044e57600080fd5b80632ab4d052146103f35780632b0ddb91146103fb578063313ce5671461040657806339509351146104155780633f4ba83a146104285780634b57bb081461043057600080fd5b80631e9a6950116102ae5780631e9a69501461039957806323b872dd146103ac5780632532c4e2146103bf57806329488ad8146103ca578063296dd4ba146103d55780632a6938aa146103e857600080fd5b806306fdde03146102f6578063095ea7b3146103145780630d0abf52146103375780630fd391931461035857806318160ddd1461037c578063182d308614610384575b600080fd5b6102fe6106b5565b60405161030b9190612a1d565b60405180910390f35b610327610322366004612a53565b610747565b604051901515815260200161030b565b61034a610345366004612a7d565b61075f565b60405190815260200161030b565b610363605360f81b81565b6040516001600160f81b0319909116815260200161030b565b60025461034a565b610397610392366004612ae4565b61089c565b005b6103976103a7366004612a53565b6109f6565b6103276103ba366004612b50565b610a1d565b610363600560fc1b81565b610363605160f81b81565b6103976103e3366004612b8c565b610a41565b610363605160f91b81565b60065461034a565b610363605760f81b81565b6040516000815260200161030b565b610327610423366004612a53565b610b7d565b610397610bbc565b610363600b60fb1b81565b610363602960f91b81565b610397610bff565b60055460ff16610327565b610363601560fa1b81565b610397610472366004612b8c565b610c44565b61034a610485366004612a7d565b6001600160a01b031660009081526020819052604090205490565b610397610d1f565b610363600560fd1b81565b6103976104c1366004612a7d565b610d59565b610397610d95565b6103976104dc366004612a53565b610dcd565b60055461010090046001600160a01b03165b6040516001600160a01b03909116815260200161030b565b61034a610519366004612a7d565b610ed1565b610363605560f81b81565b6102fe61103a565b61032761053f366004612a53565b611049565b610397610552366004612ba5565b6110db565b610327610565366004612a53565b611555565b61034a611563565b610585610580366004612b8c565b611589565b60405161030b929190612bf0565b610363602b60f91b81565b6103976105ac366004612ba5565b611639565b6102fe60405180604001604052806008815260200167151bdad95b951d9560c21b81525081565b6014546104f3906001600160a01b031681565b6103976105f9366004612c12565b611977565b61034a61060c366004612c45565b6001600160a01b03918216600090815260016020908152604080832093909416825291909152205490565b610397610645366004612ae4565b611ab2565b610363602960fa1b81565b610397610663366004612c12565b611c03565b61036360a160f81b81565b610397610681366004612a7d565b611e60565b61036360a360f81b81565b6102fe60405180604001604052806005815260200164302e302e3160d81b81525081565b6060600380546106c490612c78565b80601f01602080910402602001604051908101604052809291908181526020018280546106f090612c78565b801561073d5780601f106107125761010080835404028352916020019161073d565b820191906000526020600020905b81548152906001019060200180831161072057829003601f168201915b5050505050905090565b600033610755818585611f01565b5060019392505050565b6001600160a01b038116600090815260136020526040812081905b8054821080156108285750600760009054906101000a90046001600160a01b03166001600160a01b031663188ec3566040518163ffffffff1660e01b8152600401602060405180830381865afa1580156107d8573d6000803e3d6000fd5b505050506040513d601f19601f820116820180604052508101906107fc9190612cb3565b600b5482848154811061081157610811612ccc565b90600052602060002001546108269190612cf8565b105b15610895576001600160a01b0384166000908152601260205260408120825490919083908590811061085c5761085c612ccc565b9060005260206000200154815260200190815260200160002054836108819190612cf8565b925061088e600183612cf8565b915061077a565b5050919050565b6000336108b76005546001600160a01b036101009091041690565b6007546001600160a01b0391821692909214925060009116637cef7a4b6108ec6005546001600160a01b036101009091041690565b6040516001600160e01b031960e084901b1681526001600160a01b039091166004820152336024820152604401602060405180830381865afa158015610936573d6000803e3d6000fd5b505050506040513d601f19601f8201168201806040525081019061095a9190612d10565b905081158015610968575080155b15610977576109776000612025565b848314610988576109886004612025565b60005b858110156109ed576109db8787838181106109a8576109a8612ccc565b90506020020160208101906109bd9190612a7d565b8686848181106109cf576109cf612ccc565b905060200201356109f6565b806109e581612d32565b91505061098b565b50505050505050565b610a198283610a136005546001600160a01b036101009091041690565b84611639565b5050565b600033610a2b8582856124ad565b610a36858585612539565b506001949350505050565b600033610a5c6005546001600160a01b036101009091041690565b6007546001600160a01b0391821692909214925060009116637cef7a4b610a916005546001600160a01b036101009091041690565b6040516001600160e01b031960e084901b1681526001600160a01b039091166004820152336024820152604401602060405180830381865afa158015610adb573d6000803e3d6000fd5b505050506040513d601f19601f82011682018060405250810190610aff9190612d10565b905081158015610b0d575080155b15610b1c57610b1c6000612025565b826009600081548110610b3157610b31612ccc565b90600052602060002001819055507f4fc94e3912f1df99a4e2df9f045586d666528d24ee55105239956e01af53d8f683604051610b7091815260200190565b60405180910390a1505050565b3360008181526001602090815260408083206001600160a01b03871684529091528120549091906107559082908690610bb7908790612cf8565b611f01565b6005546001600160a01b03610100909104163314610bf55760405162461bcd60e51b8152600401610bec90612d4d565b60405180910390fd5b610bfd612712565b565b6005546001600160a01b03610100909104163314610c2f5760405162461bcd60e51b8152600401610bec90612d4d565b6005805460ff60a81b1916600160a81b179055565b6005546001600160a01b03610100909104163314610c745760405162461bcd60e51b8152600401610bec90612d4d565b600254811015610c8857610c886005612025565b600654811115610cd35760065460408051918252602082018390527fef18524e45a9c3793f74939b40ae82cfa0160b2993a65ceee104545152736f87910160405180910390a1600655565b600654811015610d1a5760065460408051918252602082018390527f314d0f34164f20ee7ef4433df38ab623d5f45c063a260cd6b5425b67d1a11abc910160405180910390a15b600655565b6005546001600160a01b03610100909104163314610d4f5760405162461bcd60e51b8152600401610bec90612d4d565b610bfd60006127a5565b6005546001600160a01b03610100909104163314610d895760405162461bcd60e51b8152600401610bec90612d4d565b806001600160a01b0316ff5b6005546001600160a01b03610100909104163314610dc55760405162461bcd60e51b8152600401610bec90612d4d565b610bfd6127ff565b600033610de86005546001600160a01b036101009091041690565b6007546001600160a01b0391821692909214925060009116637cef7a4b610e1d6005546001600160a01b036101009091041690565b6040516001600160e01b031960e084901b1681526001600160a01b039091166004820152336024820152604401602060405180830381865afa158015610e67573d6000803e3d6000fd5b505050506040513d601f19601f82011682018060405250810190610e8b9190612d10565b905081158015610e99575080155b15610ea857610ea86000612025565b610ecb84610ec46005546001600160a01b036101009091041690565b86866110db565b50505050565b6001600160a01b038116600090815260136020526040812081905b805482108015610fb55750600760009054906101000a90046001600160a01b03166001600160a01b031663188ec3566040518163ffffffff1660e01b8152600401602060405180830381865afa158015610f4a573d6000803e3d6000fd5b505050506040513d601f19601f82011682018060405250810190610f6e9190612cb3565b600b5482548390600190610f83908790612d82565b610f8d9190612d82565b81548110610f9d57610f9d612ccc565b9060005260206000200154610fb29190612cf8565b10155b15610895576001600160a01b038416600090815260126020526040812082549091908390600190610fe7908790612d82565b610ff19190612d82565b8154811061100157611001612ccc565b9060005260206000200154815260200190815260200160002054836110269190612cf8565b9250611033600183612cf8565b9150610eec565b6060600480546106c490612c78565b3360008181526001602090815260408083206001600160a01b0387168452909152812054909190838110156110ce5760405162461bcd60e51b815260206004820152602560248201527f45524332303a2064656372656173656420616c6c6f77616e63652062656c6f77604482015264207a65726f60d81b6064820152608401610bec565b610a368286868403611f01565b6000336110f66005546001600160a01b036101009091041690565b6007546001600160a01b0391821692909214925060009116637cef7a4b61112b6005546001600160a01b036101009091041690565b6040516001600160e01b031960e084901b1681526001600160a01b039091166004820152336024820152604401602060405180830381865afa158015611175573d6000803e3d6000fd5b505050506040513d601f19601f820116820180604052508101906111999190612d10565b9050811580156111a7575080155b156111b6576111b66000612025565b600554600160a81b900460ff161515600114156111d7576111d76001612025565b826111e160025490565b6111eb9190612cf8565b60065410156111fe576111fe6002612025565b600754604051630152e2f960e71b81523060048201526001600160a01b03888116602483015260448201869052600092169063a9717c8090606401602060405180830381865afa158015611256573d6000803e3d6000fd5b505050506040513d601f19601f8201168201806040525081019061127a9190612d99565b905060006112966005546001600160a01b036101009091041690565b90506001600160f81b03198216605160f81b1461131c576001600160f81b0319821660a160f81b14156112d2576112cd6007612025565b61154b565b6001600160f81b03198216605160f91b14156112f2576112cd6008612025565b6001600160f81b0319821660a360f81b1415611312576112cd6009612025565b6112cd6003612025565b611326818661287a565b60145461133c906001600160a01b031686610b7d565b506000604051806101a00160405280306001600160a01b03168152602001878152602001886001600160a01b03168152602001836001600160a01b03168152602001600860008154811061139257611392612ccc565b60009182526020808320909101546001600160a01b031683526009805493909101928a92906113c3576113c3612ccc565b90600052602060002001546113d89190612dc3565b8152602001896001600160a01b031681526020018a6001600160a01b0316815260200187600d546114099190612dc3565b815260200187600e5461141c9190612dc3565b815260200187600f5461142f9190612dc3565b81526010546001600160a01b039081166020830152600c54604092830152601454915163a7965bdb60e01b815292935060009291169063a7965bdb90611479908590600401612de2565b6020604051808303816000875af1158015611498573d6000803e3d6000fd5b505050506040513d601f19601f820116820180604052508101906114bc9190612cb3565b90507f9829b49ebb4c03c916d76c8179e2d6e4c1662e4035fb930260be33d19a07e0f381836000015184602001518560400151866060015187608001518860a001518960c001518a60e001518b61010001518c61012001518d61014001518e61016001518f61018001516040516115409e9d9c9b9a99989796959493929190612ed6565b60405180910390a150505b5050505050505050565b600033610755818585612539565b6000600960008154811061157957611579612ccc565b9060005260206000200154905090565b6000818152601160205260408120805460019091018054606093929082906115b090612c78565b80601f01602080910402602001604051908101604052809291908181526020018280546115dc90612c78565b80156116295780601f106115fe57610100808354040283529160200191611629565b820191906000526020600020905b81548152906001019060200180831161160c57829003601f168201915b5050505050915091509150915091565b336001600160a01b03851614611653576116536000612025565b6007546040516307f8573f60e01b81523060048201526001600160a01b0386811660248301526044820184905260009216906307f8573f90606401602060405180830381865afa1580156116ab573d6000803e3d6000fd5b505050506040513d601f19601f820116820180604052508101906116cf9190612d99565b9050816116db8661075f565b1080611704575081611702866001600160a01b031660009081526020819052604090205490565b105b156117105750602960f91b5b6001600160f81b03198116605160f81b146117345761172f6003612025565b611970565b60145461174a906001600160a01b031683610b7d565b506000604051806101a00160405280306001600160a01b03168152602001848152602001856001600160a01b031681526020016117956005546001600160a01b036101009091041690565b6001600160a01b0316815260200160086000815481106117b7576117b7612ccc565b60009182526020808320909101546001600160a01b03168352600a805493909101928792906117e8576117e8612ccc565b90600052602060002001546117fd9190612dc3565b8152602001866001600160a01b03168152602001876001600160a01b0316815260200184600d5461182e9190612dc3565b815260200184600e546118419190612dc3565b815260200184600f546118549190612dc3565b81526010546001600160a01b039081166020830152600c5460409283015260145491516355f406c160e11b815292935060009291169063abe80d829061189e908590600401612de2565b6020604051808303816000875af11580156118bd573d6000803e3d6000fd5b505050506040513d601f19601f820116820180604052508101906118e19190612cb3565b90507fd7de9e66fb47c5671fad8f9e2117dd838d9d711e85dc5c766c53ac7e845f3a0b81836000015184602001518560400151866060015187608001518860a001518960c001518a60e001518b61010001518c61012001518d61014001518e61016001518f61018001516040516119659e9d9c9b9a99989796959493929190612ed6565b60405180910390a150505b5050505050565b6014546001600160a01b03163314611993576119936000612025565b60075460408051630c4761ab60e11b815290516000926001600160a01b03169163188ec3569160048083019260209291908290030181865afa1580156119dd573d6000803e3d6000fd5b505050506040513d601f19601f82011682018060405250810190611a019190612cb3565b6001600160a01b0385166000908152601260209081526040808320848452909152812080549293508592909190611a39908490612cf8565b90915550506001600160a01b038416600090815260136020908152604080832080546001810182559084529190922001829055517ffb6233a3688ac48fc29eed112569e9b2acb8e6cba2fe05b6b6e81550689daef590611aa49086908690605160f81b908790612f7c565b60405180910390a150505050565b600033611acd6005546001600160a01b036101009091041690565b6007546001600160a01b0391821692909214925060009116637cef7a4b611b026005546001600160a01b036101009091041690565b6040516001600160e01b031960e084901b1681526001600160a01b039091166004820152336024820152604401602060405180830381865afa158015611b4c573d6000803e3d6000fd5b505050506040513d601f19601f82011682018060405250810190611b709190612d10565b905081158015611b7e575080155b15611b8d57611b8d6000612025565b848314611b9e57611b9e6004612025565b60005b858110156109ed57611bf1878783818110611bbe57611bbe612ccc565b9050602002016020810190611bd39190612a7d565b868684818110611be557611be5612ccc565b90506020020135610dcd565b80611bfb81612d32565b915050611ba1565b6014546001600160a01b03163314611c1f57611c1f6000612025565b6001600160a01b038316600090815260136020526040812083905b805483108015611c4a5750600082115b8015611cf45750600760009054906101000a90046001600160a01b03166001600160a01b031663188ec3566040518163ffffffff1660e01b8152600401602060405180830381865afa158015611ca4573d6000803e3d6000fd5b505050506040513d601f19601f82011682018060405250810190611cc89190612cb3565b600b54828581548110611cdd57611cdd612ccc565b9060005260206000200154611cf29190612cf8565b105b15611e17576001600160a01b038616600090815260126020526040812082548290849087908110611d2757611d27612ccc565b9060005260206000200154815260200190815260200160002054905082811115611daa57611d558382612d82565b6001600160a01b03881660009081526012602052604081208454909190859088908110611d8457611d84612ccc565b906000526020600020015481526020019081526020016000208190555060009250611e04565b6001600160a01b038716600090815260126020526040812083548290859088908110611dd857611dd8612ccc565b90600052602060002001548152602001908152602001600020819055508083611e019190612d82565b92505b611e0f600185612cf8565b935050611c3a565b7f41785595912c94d1f40dcf391b27039dbb5daf4f39920776a3560f2cf98b8c038686605160f81b87604051611e509493929190612f7c565b60405180910390a1505050505050565b6005546001600160a01b03610100909104163314611e905760405162461bcd60e51b8152600401610bec90612d4d565b6001600160a01b038116611ef55760405162461bcd60e51b815260206004820152602660248201527f4f776e61626c653a206e6577206f776e657220697320746865207a65726f206160448201526564647265737360d01b6064820152608401610bec565b611efe816127a5565b50565b6001600160a01b038316611f635760405162461bcd60e51b8152602060048201526024808201527f45524332303a20617070726f76652066726f6d20746865207a65726f206164646044820152637265737360e01b6064820152608401610bec565b6001600160a01b038216611fc45760405162461bcd60e51b815260206004820152602260248201527f45524332303a20617070726f766520746f20746865207a65726f206164647265604482015261737360f01b6064820152608401610bec565b6001600160a01b0383811660008181526001602090815260408083209487168084529482529182902085905590518481527f8c5be1e5ebec7d5bd14f71427d1e84f3dd0314c0f7b2291e5b200ac8c7c3b925910160405180910390a3505050565b600081600981111561203957612039612fac565b141561208c5760408051637b40159d60e01b8152600560fd1b60048201526024810191909152601560448201527418d85b1b195c881a5cc81b9bdd08185b1b1bddd959605a1b6064820152608401610bec565b60018160098111156120a0576120a0612fac565b14156120fb5760408051637b40159d60e01b8152600560fd1b60048201526024810191909152601b60448201527f746f6b656e2069737375616e63652069732066696e616c697a656400000000006064820152608401610bec565b600281600981111561210f5761210f612fac565b14156121785760408051637b40159d60e01b8152600560fd1b60048201526024810191909152602560448201527f63616e2774206d696e74206d6f7265207468616e206d617820746f74616c20736064820152647570706c7960d81b608482015260a401610bec565b600381600981111561218c5761218c612fac565b14156121f25760408051637b40159d60e01b8152600560fd1b60048201526024810191909152602260448201527f637573746f6469616e20636f6e74726163742076616c69646174696f6e2066616064820152611a5b60f21b608482015260a401610bec565b600481600981111561220657612206612fac565b141561224f5760408051637b40159d60e01b8152600560fd1b60048201526024810191909152600b60448201526a1ddc9bdb99c81a5b9c1d5d60aa1b6064820152608401610bec565b600581600981111561226357612263612fac565b14156122be5760408051637b40159d60e01b8152600560fd1b60048201526024810191909152602060448201527f63616e277420736574206c657373207468616e20746f74616c20737570706c796064820152608401610bec565b60078160098111156122d2576122d2612fac565b14156123215760408051637b40159d60e01b8152600560fd1b6004820152602481019190915260116044820152704b594320697320696e636f6d706c65746560781b6064820152608401610bec565b600881600981111561233557612335612fac565b14156123895760408051637b40159d60e01b8152600560fd1b60048201526024810191909152601660448201527518dbdd5b9d1c9e481a5cc81b9bdd08185b1b1bddd95960521b6064820152608401610bec565b600981600981111561239d5761239d612fac565b14156124075760408051637b40159d60e01b8152600560fd1b60048201526024810191909152602660448201527f696e766573746f7220636c617373696669636174696f6e206973206e6f7420616064820152651b1b1bddd95960d21b608482015260a401610bec565b600681600981111561241b5761241b612fac565b14156124685760408051637b40159d60e01b8152600560fd1b60048201526024810191909152600f60448201526e1d1bdad95b881a5cc81c185d5cd959608a1b6064820152608401610bec565b60408051637b40159d60e01b8152600560fd1b60048201526024810191909152600d60448201526c3ab735b737bbb71032b93937b960991b6064820152608401610bec565b6001600160a01b038381166000908152600160209081526040808320938616835292905220546000198114610ecb578181101561252c5760405162461bcd60e51b815260206004820152601d60248201527f45524332303a20696e73756666696369656e7420616c6c6f77616e63650000006044820152606401610bec565b610ecb8484848403611f01565b6001600160a01b03831661259d5760405162461bcd60e51b815260206004820152602560248201527f45524332303a207472616e736665722066726f6d20746865207a65726f206164604482015264647265737360d81b6064820152608401610bec565b6001600160a01b0382166125ff5760405162461bcd60e51b815260206004820152602360248201527f45524332303a207472616e7366657220746f20746865207a65726f206164647260448201526265737360e81b6064820152608401610bec565b61260a838383612965565b6001600160a01b038316600090815260208190526040902054818110156126825760405162461bcd60e51b815260206004820152602660248201527f45524332303a207472616e7366657220616d6f756e7420657863656564732062604482015265616c616e636560d01b6064820152608401610bec565b6001600160a01b038085166000908152602081905260408082208585039055918516815290812080548492906126b9908490612cf8565b92505081905550826001600160a01b0316846001600160a01b03167fddf252ad1be2c89b69c2b068fc378daa952ba7f163c4a11628f55a4df523b3ef8460405161270591815260200190565b60405180910390a3610ecb565b60055460ff1661275b5760405162461bcd60e51b815260206004820152601460248201527314185d5cd8589b194e881b9bdd081c185d5cd95960621b6044820152606401610bec565b6005805460ff191690557f5db9ee0a495bf2e6ff9c91a7834c1ba4fdd244a5e8aa4e537bd38aeae4b073aa335b6040516001600160a01b03909116815260200160405180910390a1565b600580546001600160a01b03838116610100818102610100600160a81b031985161790945560405193909204169182907f8be0079c531659141344cd1fd0a4f28419497f9722a3daafe3b4186f6b6457e090600090a35050565b60055460ff16156128455760405162461bcd60e51b815260206004820152601060248201526f14185d5cd8589b194e881c185d5cd95960821b6044820152606401610bec565b6005805460ff191660011790557f62e78cea01bee320cd4e420270b5ea74000d11b0c9f74754ebdbfc544b05a2586127883390565b6001600160a01b0382166128d05760405162461bcd60e51b815260206004820152601f60248201527f45524332303a206d696e7420746f20746865207a65726f2061646472657373006044820152606401610bec565b6128dc60008383612965565b80600260008282546128ee9190612cf8565b90915550506001600160a01b0382166000908152602081905260408120805483929061291b908490612cf8565b90915550506040518181526001600160a01b038316906000907fddf252ad1be2c89b69c2b068fc378daa952ba7f163c4a11628f55a4df523b3ef9060200160405180910390a35050565b60055460ff16156129cb5760405162461bcd60e51b815260206004820152602a60248201527f45524332305061757361626c653a20746f6b656e207472616e736665722077686044820152691a5b19481c185d5cd95960b21b6064820152608401610bec565b505050565b6000815180845260005b818110156129f6576020818501810151868301820152016129da565b81811115612a08576000602083870101525b50601f01601f19169290920160200192915050565b602081526000612a3060208301846129d0565b9392505050565b80356001600160a01b0381168114612a4e57600080fd5b919050565b60008060408385031215612a6657600080fd5b612a6f83612a37565b946020939093013593505050565b600060208284031215612a8f57600080fd5b612a3082612a37565b60008083601f840112612aaa57600080fd5b50813567ffffffffffffffff811115612ac257600080fd5b6020830191508360208260051b8501011115612add57600080fd5b9250929050565b60008060008060408587031215612afa57600080fd5b843567ffffffffffffffff80821115612b1257600080fd5b612b1e88838901612a98565b90965094506020870135915080821115612b3757600080fd5b50612b4487828801612a98565b95989497509550505050565b600080600060608486031215612b6557600080fd5b612b6e84612a37565b9250612b7c60208501612a37565b9150604084013590509250925092565b600060208284031215612b9e57600080fd5b5035919050565b60008060008060808587031215612bbb57600080fd5b612bc485612a37565b9350612bd260208601612a37565b9250612be060408601612a37565b9396929550929360600135925050565b604081526000612c0360408301856129d0565b90508260208301529392505050565b600080600060608486031215612c2757600080fd5b612c3084612a37565b95602085013595506040909401359392505050565b60008060408385031215612c5857600080fd5b612c6183612a37565b9150612c6f60208401612a37565b90509250929050565b600181811c90821680612c8c57607f821691505b60208210811415612cad57634e487b7160e01b600052602260045260246000fd5b50919050565b600060208284031215612cc557600080fd5b5051919050565b634e487b7160e01b600052603260045260246000fd5b634e487b7160e01b600052601160045260246000fd5b60008219821115612d0b57612d0b612ce2565b500190565b600060208284031215612d2257600080fd5b81518015158114612a3057600080fd5b6000600019821415612d4657612d46612ce2565b5060010190565b6020808252818101527f4f776e61626c653a2063616c6c6572206973206e6f7420746865206f776e6572604082015260600190565b600082821015612d9457612d94612ce2565b500390565b600060208284031215612dab57600080fd5b81516001600160f81b031981168114612a3057600080fd5b6000816000190483118215151615612ddd57612ddd612ce2565b500290565b81516001600160a01b031681526101a08101602083015160208301526040830151612e1860408401826001600160a01b03169052565b506060830151612e3360608401826001600160a01b03169052565b506080830151612e4e60808401826001600160a01b03169052565b5060a083015160a083015260c0830151612e7360c08401826001600160a01b03169052565b5060e0830151612e8e60e08401826001600160a01b03169052565b50610100838101519083015261012080840151908301526101408084015190830152610160808401516001600160a01b03811682850152505061018092830151919092015290565b8e81526001600160a01b038e81166020830152604082018e90528c811660608301528b811660808301528a1660a08201526101c081018960c0830152612f2760e083018a6001600160a01b03169052565b6001600160a01b038816610100830152866101208301528561014083015284610160830152612f626101808301856001600160a01b03169052565b826101a08301529f9e505050505050505050505050505050565b6001600160a01b0394909416845260208401929092526001600160f81b0319166040830152606082015260800190565b634e487b7160e01b600052602160045260246000fdfea2646970667358221220f2272f9ceedf2165af2dd308f7464f4a94f45eb10312850d7cd97fb74efe7f7d64736f6c634300080b0033",
  "linkReferences": {},
  "deployedLinkReferences": {}
}